:100000000C9462000C948A000C948A000C948A0070
:100010000C948A000C948A000C948A000C948A0038
:100020000C948A000C948A000C948A000C948A0028
:100030000C948A000C948A000C948A000C948A0018
:100040000C94F1030C948A000C948A000C948A009E
:100050000C948A000C948A000C948A000C948A00F8
:100060000C948A000C948A000000000024002700F1
:100070002A0000000000250028002B0000000000DE
:1000800023002600290004040404040404040202DA
:100090000202020203030303030301020408102007
:1000A0004080010204081020010204081020000012
:1000B0000008000201000003040700000000000027
:1000C00000006D0611241FBECFEFD8E0DEBFCDBF0C
:1000D00011E0A0E0B1E0EAEEFDE002C005900D9273
:1000E000AC3BB107D9F722E0ACEBB1E001C01D9207
:1000F000A535B207E1F710E0C2E6D0E004C02197D1
:10010000FE010E94E406C136D107C9F70E943B04F4
:100110000C94F3060C94000096E0899FD001112402
:10012000A253BE4F90967C936E935F9791E0919609
:100130009C939197E0913B02F0913C0290913A029E
:10014000992339F0309751F0811108C08091EA016C
:100150000994309719F05C968C91FACF0895CF925C
:10016000DF92EF92FF920F931F9396E0899FF00129
:100170001124E253FE4F11A2278D30A12130310509
:1001800051F178F02230310509F451C023303105A6
:1001900009F452C01F910F91FF90EF90DF90CF9024
:1001A00008956623B9F361E070E00E948C002FB7D8
:1001B000F8948091CA019091CB01A091CC01B091AB
:1001C000CD012FBF8093260290932702A09328028F
:1001D000B0932902DFCF9FB7F894C090CA01D090A6
:1001E000CB01E090CC01F090CD019FBF00912602A1
:1001F000109127022091280230912902C01AD10AB9
:10020000E20AF30A009138021091390230E020E04E
:100210000C151D052E053F0550F462E070E01F919E
:100220000F91FF90EF90DF90CF900C948C006111B4
:10023000B1CF63E070E0F3CF70E060E0F0CFAF9259
:10024000BF92CF92DF92EF92FF920F931F93CF93C3
:10025000DF936C017B018B01040F151FEB015E0125
:10026000AE18BF08C017D10759F06991D601ED91BA
:10027000FC910190F081E02DC6010995892B79F759
:10028000C501DF91CF911F910F91FF90EF90DF900B
:10029000CF90BF90AF900895833081F028F48130E3
:1002A00099F08230A9F008958730A9F08830C9F01C
:1002B0008430B1F4809180008F7D03C080918000F4
:1002C0008F7780938000089584B58F7784BD0895DB
:1002D00084B58F7DFBCF8091B0008F778093B00085
:1002E00008958091B0008F7DF9CFCF93DF93282FB1
:1002F00030E0F901E255FF4F8491F901E656FF4FD6
:10030000D491F901EA57FF4FC491CC23A1F0811198
:100310000E944C01EC2FF0E0EE0FFF1FE458FF4F5E
:10032000A591B491EC91ED2381E090E009F480E097
:10033000DF91CF91089580E090E0FACF862F0C9462
:1003400075011F93CF93DF93282F30E0F901E25519
:10035000FF4F8491F901E656FF4FD491F901EA5716
:10036000FF4FC491CC23A9F0162F81110E944C019C
:10037000EC2FF0E0EE0FFF1FEE58FF4FA591B49168
:100380008FB7F894EC91111108C0D095DE23DC935F
:100390008FBFDF91CF911F910895DE2BF8CF862F6D
:1003A000642F0C94A101CF93DF9390E0FC01E656FB
:1003B000FF4F24918A579F4FFC0184918823C9F0F5
:1003C00090E0880F991FFC01E859FF4FA591B49167
:1003D000FC01EE58FF4FC591D49161110DC09FB73C
:1003E000F8948C91209582238C93888128232883EC
:1003F0009FBFDF91CF910895623051F49FB7F89479
:100400003C91822F809583238C93E8812E2BEFCF14
:100410008FB7F894EC912E2B2C938FBFEACF862FB9
:10042000642F0C94D3013FB7F8948091BD01909153
:10043000BE01A091BF01B091C00126B5A89B05C027
:100440002F3F19F00196A11DB11D3FBFBA2FA92F53
:10045000982F8827BC01CD01620F711D811D911D50
:1004600042E0660F771F881F991F4A95D1F70895BC
:100470008F929F92AF92BF92CF92DF92EF92FF92B4
:100480004B015C010E9413026B017C010E9413026C
:100490006C197D098E099F09683E7340810591059D
:1004A000A8F321E0821A9108A108B10888EEC80ECD
:1004B00083E0D81EE11CF11C81149104A104B10455
:1004C00029F7FF90EF90DF90CF90BF90AF909F9073
:1004D0008F900895089590E080E00895CF93DF9382
:1004E000EC0160E08E810E94A10161E08E810E949A
:1004F000A10160E08E810E94A1018BE891E001974B
:10050000F1F7DF91CF910895CF92DF92EF92FF92B2
:100510000F931F93CF93DF936C017C0187E0E80E6C
:10052000F11CD0E0C0E0062F10E0B8010C2E02C094
:10053000759567950A94E2F76170F70181917F01E3
:100540000E94A1012196C430D10579F7C601DF913F
:10055000CF911F910F91FF90EF90DF90CF900C946F
:100560006E02CF92DF92EF92FF920F931F93CF9381
:10057000DF93EC01F62E642F8C810E94A1018D8106
:100580008F3F19F060E00E94A1010F2D10E08F85D0
:1005900084FF25C06E0187E0C80ED11CF12CE12C30
:1005A000B8010E2C02C0759567950A94E2F7617048
:1005B000F60181916F010E94A101FFEFEF1AFF0A7E
:1005C00088E0E816F10461F7CE01DF91CF911F9129
:1005D0000F91FF90EF90DF90CF900C946E02B801D6
:1005E00084E0759567958A95E1F7CE010E948402B3
:1005F0006F2DCE01DF91CF911F910F91FF90EF9062
:10060000DF90CF900C94840240E0682F8DE392E05D
:100610000C94B10281E00E9404038BE39FE10197F7
:10062000F1F70895CF93DF93823029F490914C0233
:10063000986090934C02809350021092510280E493
:100640008093520280E18093530280E580935402AC
:1006500061E0809141020E94D301809142028F3F6C
:1006600019F061E00E94D30161E0809143020E9491
:10067000D301CDE3D2E09E012D53324080914C0254
:1006800084FD0BC084E090E021962817390744F4DC
:1006900061E08E810E94D301EECF88E090E0F4CF3C
:1006A0008BE39DE00197F1F760E0809141020E94A9
:1006B000A10160E0809143020E94A1018091420269
:1006C0008F3F19F060E00E94A10180914C0284FDEF
:1006D00034C063E08DE392E00E948402CBE4D6E470
:1006E000CE010197F1F763E08DE392E00E9484026E
:1006F0002197F1F763E08DE392E00E94840283E5A5
:1007000092E00197F1F762E08DE392E00E948402AB
:1007100080914C0280620E94040384E080934D0229
:100720008CE00E9404030E940A0382E080934E0240
:1007300086E0DF91CF910C94040380620E94040351
:100740008BE496E40197F1F780914C0280620E945D
:10075000040383E592E00197F1F780914C028062F7
:100760000E940403D5CF90915002691710F06FEFEB
:10077000690FE62FF0E0E35CFD4F9489890F8068F4
:100780000C94040341E00E94B10281E090E00895DE
:10079000EF92FF921F93CF93DF937C01EC010990BE
:1007A0000020E9F72197C81BD90B10E0812F90E0BA
:1007B0008C179D0784F48E0D9F1DFC0160818DE3D5
:1007C00092E00E94C20369E170E080E090E00E9444
:1007D00038021F5FEBCFDF91CF911F91FF90EF9019
:1007E00008951F920F920FB60F9211242F933F93EB
:1007F0008F939F93AF93BF938091CA019091CB0148
:10080000A091CC01B091CD013091BC0123E0230F28
:100810002D3758F50196A11DB11D2093BC01809381
:10082000CA019093CB01A093CC01B093CD018091EC
:10083000BD019091BE01A091BF01B091C001019690
:10084000A11DB11D8093BD019093BE01A093BF0176
:10085000B093C001BF91AF919F918F913F912F9124
:100860000F900FBE0F901F90189526E8230F029649
:10087000A11DB11DD2CF789484B5826084BD84B5AA
:10088000816084BD85B5826085BD85B5816085BD8B
:1008900080916E00816080936E0010928100809143
:1008A00081008260809381008091810081608093CB
:1008B0008100809180008160809380008091B100F0
:1008C00084608093B1008091B00081608093B0001B
:1008D00080917A00846080937A0080917A008260AF
:1008E00080937A0080917A00816080937A00809171
:1008F0007A00806880937A001092C10082E00E94A2
:10090000120385E391E00E94C80368EE73E080E083
:1009100090E00E943802412C512C32014394222451
:100920002A94322C50E0C52E50E0D52E60E08DE0A8
:100930000E94A10151E050933A028FB7F894409180
:10094000CA015091CB016091CC017091CD018FBF54
:1009500080912A0290912B02A0912C02B0912D023D
:10096000481B590B6A0B7B0B809136029091370222
:10097000B0E0A0E084179507A607B70708F014C1F8
:10098000C0E080913402C81760F4E0913002F09129
:100990003102EC0FF11D62E080810E94D301CF5F34
:1009A000F0CF912C80913502981608F05FC0092D88
:1009B00010E0E0913202F0913302E00FF11F61E0AC
:1009C00080810E94D301E0913202F0913302E00F66
:1009D000F11F60E080810E94A101D301C201092CB6
:1009E00004C0880F991FAA1FBB1F0A94D2F75C018D
:1009F0007C01E094F094812C809134028816F8F404
:100A0000C82DD0E0E0913002F0913102EC0FFD1FD3
:100A100080810E9475012496CC0FDD1FC253DE4FEA
:100A2000892B41F4888199818A299B29998388831C
:100A30008394E2CF888199818E219F21F7CFE09125
:100A40003202F0913302E00FF11F61E080810E94D9
:100A5000A1018091320290913302080F191F60E0CA
:100A6000F80180810E94D30193949CCFCEECD1E019
:100A7000FE01878D90A1892B21F4148E368E258E50
:100A800011A2369652E0EA30F50799F710E080910E
:100A90003402181708F053C000E0E12EF12CEE0CE0
:100AA000FF1CC7018A529E4F7C012091350202171C
:100AB00008F043C0F70160817181002E02C0769575
:100AC00067950A94E2F7129F90011124200F311DBF
:100AD000EEECF1E080E0458D568D2417350709F4E2
:100AE000FAC08F5F36968A30B1F760FF24C0EEEC13
:100AF000F1E090E080E0448D411118C0E0912E02B9
:100B0000F0912F02E20FF31F408156E0589FF00151
:100B1000599FF00D1124E253FE4F448F368F258FDD
:100B200010A2178E61E00E94AF0005C001963696B4
:100B30008A30910501F70F5FB8CF1F5FA8CF80E023
:100B400099A19111892F269692E0CA30D907C1F751
:100B50009FB7F8944091CA015091CB016091CC01AC
:100B60007091CD019FBF40932A0250932B02609356
:100B70002C0270932D028823B9F08091EF01882315
:100B800099F08091ED019091EE01019769F4009147
:100B9000EA010093C90101110CC0C114D10409F488
:100BA000C5CE0E940000C2CE10923A021092C90136
:100BB000F4CF1091C80111110EC00E940A0360E029
:100BC00080E00E94B3038BE591E00E94C80361E0DE
:100BD00080E00E94B303C12FD0E0CF53DE4F0883E3
:100BE00061E0812F0E94B30341E068818DE392E0D0
:100BF0000E94B1021F5F1093C801163071F668E1C0
:100C000071E081EC91E00E94EA06892B09F049C06D
:100C100061E08EE00E94D3010E940A0360E080E060
:100C20000E94B30388E691E00E94C80361E080E07F
:100C30000E94B30387E791E00E94C80368EE73E067
:100C400080E090E00E9438020E940A0360E080E0A9
:100C50000E94B30361E08EE00E94A10185E891E06B
:100C60000E94C80368EB7BE080E090E00E943802BD
:100C70000E940A034BE050E063EA71E08DE392E0EA
:100C80000E941F0160E08EE00E94A1018091C801D6
:100C9000E82FF0E0EE53FE4F8823D1F081501292FE
:100CA000FBCF0E940A038FEA91E00E94C80368EE1E
:100CB00073E080E090E00E9438020E940A0360E046
:100CC00080E00E94B3038BE591E00E94C803DECF71
:100CD0001092C80162CF617026CF1092400210922C
:100CE0003F028DE291E090933E0280933D028DE0C1
:100CF000809341028FEF809342028CE08093430205
:100D00008BE0809344028AE08093450289E08093DF
:100D1000460288E0809347021092480210924902EE
:100D200010924A0210924B0210924C0281E00E94F3
:100D300012031092D0011092D4011092D30110929C
:100D4000D50183E291E09093CF018093CE01EAEE4A
:100D5000F1E01082148213821582369682E0E63228
:100D6000F807B9F784E091E0909331028093300264
:100D700080E091E0909333028093320284E080938C
:100D800034028093350288E091E090932F028093A3
:100D90002E028AE090E0909337028093360284EF2F
:100DA00091E0909339028093380210923C021092A5
:100DB0003B0210922A0210922B0210922C021092E7
:100DC0002D0210923A020895EE0FFF1F0590F49144
:100DD000E02D0994FB01DC018D9101908019011037
:0A0DE000D9F3990B0895F894FFCFA2
:100DEA0003020100070605043738392F34353678EF
:100DFA003132332D43303D2B313233343536000016
:100E0A000000000F02CF019E0100000000C2031F74
:100E1A00016B026A024C61626F726174757661726B
:100E2A00204769726D656B20204963696E2053699A
:100E3A0066726520476972696E2000536966726539
:100E4A0020476972696E3A004B696C69646920418E
:100E5A006374696E697A00476972697320596170AF
:100E6A00696E697A00332053616E69796520536F20
:100E7A006E7261204B617069204B6170616E6163B3
:100E8A00616B00536966726520476972696E005921
:0C0E9A00616E6C6973205369667265001C
:00000001FF
